{
  "_format": "hh3-artifact-1",
  "contractName": "ArenaRegistry",
  "sourceName": "src/ArenaRegistry.sol",
  "abi": [
    {
      "inputs": [],
      "stateMutability": "nonpayable",
      "type": "constructor"
    },
    {
      "inputs": [],
      "name": "NotOwner",
      "type": "error"
    },
    {
      "inputs": [
        {
          "internalType": "address",
          "name": "round",
          "type": "address"
        }
      ],
      "name": "RoundAlreadyCurrent",
      "type": "error"
    },
    {
      "inputs": [],
      "name": "ZeroAddress",
      "type": "error"
    },
    {
      "anonymous": false,
      "inputs": [
        {
          "indexed": true,
          "internalType": "address",
          "name": "previousRound",
          "type": "address"
        },
        {
          "indexed": true,
          "internalType": "address",
          "name": "newRound",
          "type": "address"
        }
      ],
      "name": "CurrentRoundUpdated",
      "type": "event"
    },
    {
      "anonymous": false,
      "inputs": [
        {
          "indexed": false,
          "internalType": "bytes32",
          "name": "previousHash",
          "type": "bytes32"
        },
        {
          "indexed": false,
          "internalType": "bytes32",
          "name": "newHash",
          "type": "bytes32"
        }
      ],
      "name": "SeasonMetadataHashUpdated",
      "type": "event"
    },
    {
      "inputs": [],
      "name": "allPastRounds",
      "outputs": [
        {
          "internalType": "address[]",
          "name": "",
          "type": "address[]"
        }
      ],
      "stateMutability": "view",
      "type": "function"
    },
    {
      "inputs": [],
      "name": "currentRound",
      "outputs": [
        {
          "internalType": "address",
          "name": "",
          "type": "address"
        }
      ],
      "stateMutability": "view",
      "type": "function"
    },
    {
      "inputs": [],
      "name": "owner",
      "outputs": [
        {
          "internalType": "address",
          "name": "",
          "type": "address"
        }
      ],
      "stateMutability": "view",
      "type": "function"
    },
    {
      "inputs": [],
      "name": "pastRoundCount",
      "outputs": [
        {
          "internalType": "uint256",
          "name": "",
          "type": "uint256"
        }
      ],
      "stateMutability": "view",
      "type": "function"
    },
    {
      "inputs": [
        {
          "internalType": "uint256",
          "name": "",
          "type": "uint256"
        }
      ],
      "name": "pastRounds",
      "outputs": [
        {
          "internalType": "address",
          "name": "",
          "type": "address"
        }
      ],
      "stateMutability": "view",
      "type": "function"
    },
    {
      "inputs": [],
      "name": "seasonMetadataHash",
      "outputs": [
        {
          "internalType": "bytes32",
          "name": "",
          "type": "bytes32"
        }
      ],
      "stateMutability": "view",
      "type": "function"
    },
    {
      "inputs": [
        {
          "internalType": "address",
          "name": "round",
          "type": "address"
        }
      ],
      "name": "setCurrentRound",
      "outputs": [],
      "stateMutability": "nonpayable",
      "type": "function"
    },
    {
      "inputs": [
        {
          "internalType": "bytes32",
          "name": "hash",
          "type": "bytes32"
        }
      ],
      "name": "setSeasonMetadataHash",
      "outputs": [],
      "stateMutability": "nonpayable",
      "type": "function"
    },
    {
      "inputs": [
        {
          "internalType": "address",
          "name": "newOwner",
          "type": "address"
        }
      ],
      "name": "transferOwnership",
      "outputs": [],
      "stateMutability": "nonpayable",
      "type": "function"
    }
  ],
  "bytecode": "0x6080604052348015600e575f5ffd5b505f80546001600160a01b031916331790556104c28061002d5f395ff3fe608060405234801561000f575f5ffd5b5060043610610090575f3560e01c80638da5cb5b116100635780638da5cb5b14610103578063904c187014610115578063ec2f42f71461012a578063f2fde38b14610132578063fd9ba02414610145575f5ffd5b80633325083b1461009457806375bb29bc146100a95780637ea3fb1c146100bc5780638a19c8bc146100d8575b5f5ffd5b6100a76100a23660046103fd565b610158565b005b6100a76100b7366004610414565b6101c7565b6100c560035481565b6040519081526020015b60405180910390f35b6001546100eb906001600160a01b031681565b6040516001600160a01b0390911681526020016100cf565b5f546100eb906001600160a01b031681565b61011d610303565b6040516100cf9190610441565b6002546100c5565b6100a7610140366004610414565b610363565b6100eb6101533660046103fd565b6103d5565b5f546001600160a01b03163314610182576040516330cd747160e01b815260040160405180910390fd5b600380549082905560408051828152602081018490527f3424c27c3f597fc9da82d09e8478f3fe9aae9f7154599397d517046a3da5e89f910160405180910390a15050565b5f546001600160a01b031633146101f1576040516330cd747160e01b815260040160405180910390fd5b6001600160a01b0381166102185760405163d92e233d60e01b815260040160405180910390fd5b6001546001600160a01b039081169082160361025657604051632034bddd60e21b81526001600160a01b038216600482015260240160405180910390fd5b6001546001600160a01b031680156102b357600280546001810182555f919091527f405787fa12a823e0f2b7631cc41b3ba8828b3321ca811111fa75cd3aa3bb5ace0180546001600160a01b0319166001600160a01b0383161790555b600180546001600160a01b0319166001600160a01b0384811691821790925560405190918316907f7a88153917b78c7aa3139d100134a530bab56bf4d5745aba6a4b06968f8ff590905f90a35050565b6060600280548060200260200160405190810160405280929190818152602001828054801561035957602002820191905f5260205f20905b81546001600160a01b0316815260019091019060200180831161033b575b5050505050905090565b5f546001600160a01b0316331461038d576040516330cd747160e01b815260040160405180910390fd5b6001600160a01b0381166103b45760405163d92e233d60e01b815260040160405180910390fd5b5f80546001600160a01b0319166001600160a01b0392909216919091179055565b600281815481106103e4575f80fd5b5f918252602090912001546001600160a01b0316905081565b5f6020828403121561040d575f5ffd5b5035919050565b5f60208284031215610424575f5ffd5b81356001600160a01b038116811461043a575f5ffd5b9392505050565b602080825282518282018190525f918401906040840190835b818110156104815783516001600160a01b031683526020938401939092019160010161045a565b50909594505050505056fea2646970667358221220ea29a63246a2279625feedb04d2883802c062aa91113007164ded28d9c0688e064736f6c634300081c0033",
  "linkReferences": {},
  "deployedLinkReferences": {},
  "immutableReferences": {},
  "inputSourceName": "project/src/ArenaRegistry.sol",
  "buildInfoId": "solc-0_8_28-b52a7ca9d02b5ae594d28ed899569625254f46f1"
}